:10000000C7C00000ECC00000EAC000000C94610F03
:100010000C94840F0C94A70FE2C000000C94031200
:10002000DEC00000DCC00000DAC00000D8C0000064
:10003000D6C00000D4C00000D2C00000D0C0000074
:100040000C943C08CCC0000012C4000051C4000055
:10005000C6C00000C4C00000C2C00000C0C0000094
:100060000C94DA0CBCC000005102750258027502F3
:100070005F0275024902750275027502750275020A
:1000800075027502750268026B0268026B026E02ED
:10009000710200C201000100110011000C0000E11A
:1000A00000000A002500250021000096000019002C
:1000B000390039003600127A00001F004600460061
:1000C00044008070000022004D004D004A00004BAB
:1000D00000003600750075007200403800004A00CC
:1000E0009C009C009900802500007200EC00EC0050
:1000F000E900C0120000E900DA01DA01D701600965
:100100000000D701B603B603B303B0040000B30385
:100110006E076E076B07580200006E07DC0EDC0EE0
:10012000D80E2C010000DC0EC11DC11DBE1D00003B
:1001300000070002010000030406000000000000A8
:100140000000010204081020408001020408102071
:10015000010204081020040404040404040402023C
:100160000202020203030303030300000000230052
:100170002600290000000000250028002B000000B8
:100180000000240027002A00050234050E0B13028C
:1001900011241FBECFEFD8E0DEBFCDBF12E0A0E03C
:1001A000B1E0E6EDF1E302C005900D92A833B1078E
:1001B000D9F714E0A8E3B2E001C01D92AB38B10753
:1001C000E1F711E0CEE8D1E004C02297FE010E94E1
:1001D000AC15C838D107C9F79DD40C94DF1810CFDF
:1001E000FC01848195810895CF93DF93EC010496FF
:1001F0000E94F2111816190614F08A819B81DF9172
:10020000CF910895CF93DF93EC017D836C838A8136
:100210009B8177FD04C00E943B0A61E004C06195A8
:100220000E943B0A62E08A819B81DF91CF910C940E
:10023000130ACF93DF93CDB7DEB7D4500FB6F8943F
:10024000DEBF0FBECDBFFE01EB5FFB4F4191519171
:100250009F0160E074E0CE0101960E941016BE017D
:100260006F5F7F4F82ED92E09CD4DC5F0FB6F89415
:10027000DEBF0FBECDBFDF91CF910895CF93DF9347
:10028000EC0181EC91E0998388831D821C8223E03C
:1002900030E03F832E83998788871D861C8684E003
:1002A00090E09F878E8789EC91E0998B888B24EF73
:1002B00031E04FE06FE0CE0144960E9408111FA686
:1002C0001EA684E690E09FA38EA399A788A79BA76C
:1002D0008AA78CE291E09DA78CA78FEC91E099AB67
:1002E00088AB1BAA1AAADF91CF910895CF93DF9311
:1002F000EC0160E070E086DF60E070E0CE0108961F
:1003000081DF83E090E09DAB8CAB6AE071E086EB2F
:1003100092E0DF91CF9161C4CF93DF93EC016FEF57
:1003200070E070DF6FEF70E0CE0108966BDF81E068
:1003300090E09DAB8CAB63E271E086EB92E0DF91E5
:10034000CF914BC4CF93DF93CDB7DEB7CC5CD1094F
:100350000FB6F894DEBF0FBECDBF40E855E260E0B7
:1003600070E082ED92E0FFD240E855E260E070E09C
:1003700086EB92E00E9442106CE371E086EB92E023
:100380002CD460E476E082E792E06CD784E4E2E784
:10039000F2E0DE01A757BF4F01900D928A95E1F779
:1003A00088E392E0A3DF84E4FE01E757FF4FDE011C
:1003B000119601900D928A95E1F760913E02CE016F
:1003C000019697D790933B0280933A0284E4FE0112
:1003D000E757FF4FDE01AB5BBF4F01900D928A954F
:1003E000E1F760914602CE018B5B9F4F82D79093DD
:1003F000430280934202C453DF4F0FB6F894DEBF2E
:100400000FBECDBFDF91CF91089520E041E160E1C3
:1004100086EB92E00E94141060E682E792E0BED77D
:1004200088E392E02BCF86EB92E00C940211FF92CE
:100430000F931F93CF93DF938C01EB011B821A82E2
:10044000198218821D821C8286EB92E00E943F0E68
:10045000181619060CF058C086EB92E00E94040EA4
:10046000F82E6EE471E086EB92E09BD36F2D86EB65
:1004700092E0C5D34F2D552747FD5095652F752F19
:10048000FA01F297E531F10580F5EC5CFF4F0C9431
:10049000AA156DE571E086EB92E09FD38FEF90E0B7
:1004A00002C081E09FEF9B838A83998388831DC06C
:1004B00081E09FEF998388838FEF90E006C08FEFF4
:1004C00090E09983888381E09FEF9B838A830DC0AE
:1004D00081E090E008C082E090E005C083E090E019
:1004E00002C084E090E09D838C838C819D81009785
:1004F00031F0F801228133818217930729F0F80146
:100500009383828381E001C080E0DF91CF911F91CE
:100510000F91FF9008957F928F929F92AF92BF921A
:10052000CF92DF92EF92FF920F931F93CF93DF93BF
:1005300000D000D000D0CDB7DEB78C01E7D56B017D
:100540007C01C801409650DE4C01D8019E962D9149
:100550003C919F97F901EE0FFF1FE00FF11F9C9652
:100560008D919C919D9746A157A1841B950B880D59
:10057000991D9D969C938E939C972F5F3F4F9F96BE
:100580003C932E939E9797A286A22330310520F0AC
:100590009F961C921E929E9763E070E00E94451504
:1005A0005B011A8219821C821B821E821D82BE017F
:1005B0006F5F7F4FC801C0963ADF782E8E818F9390
:1005C0008D818F938C818F938B818F938A818F9371
:1005D00089818F931F927F92BF92AF92FF92EF9289
:1005E000DF92CF92F80185A98F9384A98F932CE68F
:1005F00031E03F932F931DDE63EB71E086EB92E0D9
:10060000D0D24AE050E0B40186EB92E0D0D3D801DA
:10061000D4962D913C91D5970FB6F894DEBF0FBEBE
:10062000CDBF23303105A9F4772009F46DC08D8149
:100630009E81009721F0019709F066C063C069812F
:100640007A81C801DFDD6B817C81C8010896DADD23
:100650005BC0772039F08D819E81019719F4C80124
:1006600045DE52C02130310509F03BC0FBE0AF163A
:10067000B10408F049C062E070E080E090E0B3D4DB
:100680009801285F3F4F5901672B682B692B39F47C
:1006900061E07FEFC801B6DD6FEF70E006C06FEF7D
:1006A00070E0C801AFDD61E07FEFC501ABDD82E046
:1006B00090E0D801D5969C938E93D49728EE33E0A2
:1006C00040E050E064EF71E080E090E0B8D46C0D61
:1006D0007D1D8E1D9F1DF80166AB77AB80AF91AF7E
:1006E00013C02230310581F4F80186A997A9A0AD85
:1006F000B1ADC816D906EA06FB0630F0FBE0AF162E
:10070000B10410F0C80108DE26960FB6F894DEBFDB
:100710000FBECDBFDF91CF911F910F91FF90EF9052
:10072000DF90CF90BF90AF909F908F907F90089573
:1007300088E392E0F0CEFC0184859585FC01E05CC5
:10074000FF4F20813181FC01EE5BFF4F8081918161
:10075000281B390B2F733327C9010895FC018485A9
:100760009585FC01E05CFF4F40815181FC01EE5B0F
:10077000FF4F208131814217530741F00190F081F2
:10078000E02DE80FF91F208130E002C02FEF3FEF8E
:10079000C9010895FC0184859585FC01E05CFF4F4B
:1007A00040815181FC01EE5BFF4F20813181421776
:1007B000530781F0A081B181A80FB91F8C912081CE
:1007C00031812F5F3F4F2F73332731832083282FB1
:1007D00030E002C02FEF3FEFC9010895FC0181A175
:1007E000882329F0A489B5898C9186FFFBCF11A2BB
:1007F0000895CF93DF93FC0126853785D901A05C4E
:10080000BF4F8D919C91119701968F739927E901A4
:10081000CE5BDF4F4881598184179507D9F30D903E
:10082000BC91A02DA20FB31F6C93A685B785A05CC9
:10083000BF4F11969C938E93A689B7892C9181E026
:1008400090E0078C02C0880F991F0A94E2F7282BCA
:100850002C9381E081A30488F589E02D8081806458
:10086000808381E090E0DF91CF91089508951F92F9
:100870000F920FB60F9211242F933F934F938F93A4
:100880009F93EF93FF938091C00082FD1CC0409125
:10089000C600809178039091790301968F73992710
:1008A00020917A0330917B038217930771F0E091D6
:1008B0007803F0917903E85CFC4F408390937903CF
:1008C0008093780302C08091C600FF91EF919F91C1
:1008D0008F914F913F912F910F900FBE0F901F90CE
:1008E000189582ED92E027DF892B09F0BFCF08959C
:1008F0001F920F920FB60F9211242F933F938F9355
:100900009F93EF93FF9320913403309135038091AF
:100910003603909137032817390731F48091C100CD
:100920008F7D8093C10014C0E0913603F0913703AE
:10093000EC50FD4F20818091360390913703019652
:100940008F73992790933703809336032093C600C3
:10095000FF91EF919F918F913F912F910F900FBE3B
:100960000F901F901895CF92DF92EF92FF92CF9346
:10097000DF93EC016A017B01411581EE58076105A7
:100980007105F9F0EC89FD8981E090E008A002C0D2
:10099000880F991F0A94E2F7808360E079E08DE385
:1009A00090E0A70196010E946C1521503109410980
:1009B00051095695479537952795211580E13807B8
:1009C00098F0EC89FD89108260E874E88EE190E08F
:1009D000A70196010E946C15215031094109510966
:1009E0005695479537952795E889F9893083EA899F
:1009F000FB89208319A2EE89FF89408181E090E084
:100A00009C010C8C02C0220F331F0A94E2F7422B88
:100A10004083EE89FF8940819C010D8C02C0220F2A
:100A2000331F0A94E2F7422B4083EE89FF8940810D
:100A30009C010E8C02C0220F331F0A94E2F7422B56
:100A40004083EE89FF8920810F8C02C0880F991F97
:100A50000A94E2F7809582238083DF91CF91FF9003
:100A6000EF90DF90CF9008951092D5021092D402AB
:100A700088EE93E0A0E0B0E08093D6029093D70296
:100A8000A093D802B093D90285ED91E09093D30260
:100A90008093D20288E393E09093DF028093DE029A
:100AA00084EF92E09093E1028093E00285EC90E085
:100AB0009093E3028093E20284EC90E09093E5024D
:100AC0008093E40280EC90E09093E7028093E6024A
:100AD00081EC90E09093E9028093E80282EC90E050
:100AE0009093EB028093EA0286EC90E09093ED0203
:100AF0008093EC0284E08093EE0283E08093EF0227
:100B000087E08093F00285E08093F10281E080939A
:100B1000F202089565D316DCC1E7D4E009DE209720
:100B2000E9F3DFDEFBCFCF92DF92EF92FF920F93DC
:100B30001F93CF93DF936C01EB017A01E60EF71E52
:100B400000E010E00BC06991D601ED91FC9101909D
:100B5000F081E02DC6010995080F191FCE15DF059C
:100B600091F7C801DF91CF911F910F91FF90EF9006
:100B7000DF90CF9008956115710581F0DB010D9034
:100B80000020E9F7AD0141505109461B570BDC012C
:100B9000ED91FC910280F381E02D099480E090E0DA
:100BA0000895E9CFDC01ED91FC910190F081E02DF9
:100BB00009940F931F93CF93DF93EC016DE0F2DF65
:100BC0008C016AE0CE01EEDF9C01200F311FC901CC
:100BD000DF91CF911F910F9108950F931F93CF93A2
:100BE000DF93EC01C8DF8C01CE01E3DF9801280F11
:100BF000391FC901DF91CF911F910F9108950F9374
:100C00001F93CF93DF93EC01CDDF8C01CE01D1DFB9
:100C10009C01200F311FC901DF91CF911F910F91CE
:100C200008954F925F926F927F929F92AF92BF9280
:100C3000CF92DF92EF92FF920F931F93CF93DF93A8
:100C4000CDB7DEB7A1970FB6F894DEBF0FBECDBF0C
:100C50005C016A017B01922E19A281E0821710F0DB
:100C60008AE0982E8E010F5D1F4F492C512C612C6C
:100C7000712CC701B601A30192010E946C158C2D45
:100C8000929E80191124015011098A3014F4805D5C
:100C900001C0895CF801808369017A01C114D10423
:100CA000E104F10431F7B801C50165DFA1960FB683
:100CB000F894DEBF0FBECDBFDF91CF911F910F9192
:100CC000FF90EF90DF90CF90BF90AF909F907F907C
:100CD0006F905F904F9008952115310541F4DC012C
:100CE000ED91FC910190F081E02D642F099499CF52
:100CF0000F931F93CF93DF93EC019A01462F50E09F
:100D000060E070E0E9DF8C01CE0153DF9801280F2D
:100D1000391FC901DF91CF911F910F910895CF9293
:100D2000DF92EF92FF920F931F93CF93DF93EC012B
:100D30006A017B012115310579F4E881F98101907F
:100D4000F081E02D642FDF91CF911F910F91FF90E3
:100D5000EF90DF90CF9009942A30310519F477FD98
:100D60000DC02AE0B701A601CE01DF91CF911F91FE
:100D70000F91FF90EF90DF90CF9053CF6DE212DF95
:100D80008C0144275527BA014C195D096E097F096A
:100D90002AE0CE0146DF080F191FC801DF91CF916D
:100DA0001F910F91FF90EF90DF90CF9008950F93D8
:100DB0001F93CF93DF93EC019A01AB01662757FD98
:100DC0006095762FACDF8C01CE01F3DE9801280F01
:100DD000391FC901DF91CF911F910F9108957F9223
:100DE0008F929F92AF92BF92CF92DF92EF92FF923B
:100DF0000F931F93CF93DF93EC016A017B01122FB6
:100E00009A01AB01C701B6010E943215882319F07F
:100E100061EE71E032C046015701E894B7F82FEF58
:100E20003FEF4FE75FE7C501B4010E943215811122
:100E30000DC02FEF3FEF4FE75FE7C501B4010E9400
:100E4000291318161CF465EE71E017C02FEF3FEF61
:100E50004FE75FE4C701B6010E94CB1418160CF4EB
:100E60000AC02FEF3FEF4FE75FECC701B6010E94CA
:100E7000291387FF11C069EE71E0CE01DF91CF9198
:100E80001F910F91FF90EF90DF90CF90BF90AF90A8
:100E90009F908F907F906FCE20E030E0A901C70136
:100EA000B6010E94291387FF09C06DE2CE017ADEE8
:100EB0005C01F7FAF094F7F8F09402C0A12CB12C81
:100EC00000E060E070E080E09FE307C020E030E0F9
:100ED00040E251E40E942D130F5F0113F7CF262F3C
:100EE000372F482F592FC701B6010E94C512762E01
:100EF000872E982EC92E0E949A13D62EE72EF82EF2
:100F0000092F0E94C6139B01AC01672D782D892DF6
:100F10009C2D0E94C412C62E972E882E792E2AE070
:100F20004D2D5E2D6F2D702FCE017BDE7C01EA0CE6
:100F3000FB1C1123A9F16DEE71E0CE011CDEE80E61
:100F4000F91E2EC020E030E040E251E46C2D792DF6
:100F5000882D972D0E94CF14762E072F6C019D2D82
:100F60000E9495134B01AA2497FCA094BA2C2AE066
:100F700030E0B501A401CE01D2DEE80EF91EC501B4
:100F8000B4010E94C8139B01AC01672D702F8C2DFA
:100F90009D2D0E94C412C62E972E882E792E115098
:100FA0001111D0CFC701DF91CF911F910F91FF9009
:100FB000EF90DF90CF90BF90AF909F908F907F90F9
:100FC00008950F931F93CF93DF93EC0108DF8C01FB
:100FD000CE01EFDD9801280F391FC901DF91CF91B4
:100FE0001F910F9108950F931F93CF93DF9300D01C
:100FF00000D0CDB7DEB79B01AC016115710581054D
:10100000910579F069833A834B835C830E940416CF
:1010100029813A814B815C810E948E158B019C0154
:1010200003C000E010E09801B801C9010F900F90D3
:101030000F900F90DF91CF911F910F910895CF9254
:10104000DF92EF92FF926B017C01621773078407B6
:1010500095075CF4CA01B9016C197D098E099F09D5
:10106000C2DFC60ED71EE81EF91EB601C701FF90EB
:10107000EF90DF90CF9008951F920F920FB60F92CE
:1010800011242F933F938F939F93AF93BF9380919E
:101090007C0390917D03A0917E03B0917F033091FA
:1010A0008403232F2D5F2D3720F40196A11DB11D40
:1010B00005C0232F2A570296A11DB11D209384033A
:1010C00080937C0390937D03A0937E03B0937F0372
:1010D0008091800390918103A0918203B09183035A
:1010E0000196A11DB11D8093800390938103A0936D
:1010F0008203B0938303BF91AF919F918F913F91F2
:101100002F910F900FBE0F901F9018950F931F9364
:101110008FB7F89400917C0310917D0320917E039A
:1011200030917F038FBFB801C9011F910F910895BE
:101130000F931F939FB7F894009180031091810340
:10114000209182033091830386B5A89B06C08F3F10
:1011500021F00F5F1F4F2F4F3F4F9FBF322F212F87
:10116000102F0027080F111D211D311D42E0000F17
:10117000111F221F331F4A95D1F7B801C9011F91D2
:101180000F910895CF92DF92EF92FF92CF93DF936A
:101190006B017C01CDDFEB010DC0CADF6C1B7D0B49
:1011A000683E734038F081E0C81AD108E108F108C0
:1011B000C851DC4FC114D104E104F10471F7DF918F
:1011C000CF91FF90EF90DF90CF900895019739F085
:1011D000880F991F880F991F02970197F1F70895BB
:1011E000789484B5826084BD84B5816084BD85B502
:1011F000826085BD85B5816085BDEEE6F0E08081C9
:1012000081608083E1E8F0E01082808182608083E9
:10121000808181608083E0E8F0E08081816080836C
:10122000E1EBF0E0808184608083E0EBF0E080819E
:1012300081608083EAE7F0E0808184608083808140
:1012400082608083808181608083808180688083E8
:101250001092C100089520E030E040E050E08D5B46
:101260009F4FE9C1EF92FF920F931F93CF93DF93AC
:101270008C017B0185E893E09CD1E801CD5BDF4FD9
:10128000CE013BD2F801F282E182B70180E090E02A
:101290000E94C613AB01BC01CE0155D210E020E084
:1012A00030E040E050E0612FCE01C5D11F5F10312A
:1012B000B1F7DF91CF911F910F91FF90EF900895BB
:1012C0009A018D5B9F4F211540E1340728F020E003
:1012D00030E040E050E102C040E050E0ACC14111DC
:1012E00001C0B9CF20E030E040E050E18D5B9F4F7E
:1012F000A2C1CF939C01653008F044C06150C6E0A4
:10130000462F50E0FC01C69FE00DF11D11248085A1
:1013100081112EC06087CA010196C89FF001C99F44
:10132000F00D1124E20FF31F31832083662351F067
:10133000613061F0623071F0633079F476E0A5E0FD
:10134000B7E00BC079E0AAE0B8E007C07CE0ABE012
:10135000BDE003C073E0A4E0B2E086E0849FF0014A
:10136000859FF00D1124E20FF31FB383A4837583CF
:1013700066E0649FC001659F900D11240396820F63
:10138000931F02C080E090E0CF910895FC01148289
:10139000138215821282118210820895BF92CF9219
:1013A000DF92EF92FF920F931F93CF93DF931F92E1
:1013B000CDB7DEB78C01B62E7C0183E0E80EF11CC0
:1013C0006801EBE1CE0ED11CC701E0DFF6E0EF0EC5
:1013D000F11CEC14FD04C1F7F80113A616A612A621
:1013E00011A617AEEE5BFF4F1082F80116AE15AED8
:1013F0007801F3E4EF0EF11C60E4C70119D1F801A4
:10140000B0826B2DCE01019613D18981F7018083C3
:101410000F90DF91CF911F910F91FF90EF90DF9090
:10142000CF90BF900895CF93DF93EC01623059F0D5
:101430006430A1F06130E1F46A818B819C810BDF23
:1014400041E0698106C069818B819C8104DF41E0B4
:101450006A818B819C81DF91CF9141CF69818B81A2
:101460009C81F9DE6A818B819C81DF91CF91F3CEE3
:10147000DF91CF91089520E1629FA0011124FC012A
:101480006081838194811CCF8091B50390E020918D
:10149000B603821B910908952091B6038091B5038C
:1014A000281750F4E22FF0E0E954FC4F808190E0DF
:1014B0002F5F2093B60308958FEF9FEF0895E0917B
:1014C000B6038091B503E81730F4F0E0E954FC4F1F
:1014D000808190E008958FEF9FEF08950895CF9257
:1014E000DF92EF92FF920F931F93CF93DF937C01D4
:1014F000CB018A0120919103222389F0EB016B013A
:10150000C40ED51ECC15DD0561F06991D701ED91B2
:10151000FC910190F081E02DC7010995F3CF642F74
:1015200020D2C801DF91CF911F910F91FF90EF90D2
:10153000DF90CF900895CF93DF931F92CDB7DEB7A2
:101540006983209191032223D1F0209192032032CC
:1015500040F021E030E0FC013383228380E090E022
:1015600014C080919303E82FF0E0EC56FC4F998172
:1015700090838F5F809393038093920304C061E014
:10158000CE010196EED181E090E00F90DF91CF91F6
:101590000895FC011382128248EE53E060E070E08F
:1015A000448355836683778383EF91E091838083BF
:1015B00008951092B6031092B503109293031092FF
:1015C00092031CC1862F413208F040E267EB73E0C2
:1015D00031D11092B6038093B503089521E0F2CF84
:1015E00081E0809391036093B4031092930310926F
:1015F000920308950F93062F21E04091920364E92E
:1016000073E08091B4035AD1109293031092920325
:10161000109291030F91089561E0ECCF85E893E07B
:10162000B8CFDC01ED91FC910190F081E02D09949F
:10163000FC0160830895FF920F931F93CF93DF9374
:1016400000D0CDB7DEB7162FF52E032FFC01608139
:1016500085E893E02A834983C3DFE0918503F09115
:10166000860384E0189FB00111246A5F7F4F0190C8
:10167000F081E02D85E893E009954981642F7F2D65
:1016800085E893E0CEDF6F2D70E085E893E0C9DF59
:101690002A81622F702F85E893E0C3DF602F70E00E
:1016A00085E893E0BEDF85E893E00F900F90DF912F
:1016B000CF911F910F91FF90AFCF1F93CF93DF93E7
:1016C0001F92CDB7DEB7162FFC01608185E893E04D
:1016D000498386DF612F85E893E02DDF4981642F00
:1016E00085E893E028DF85E893E00F90DF91CF91C4
:1016F0001F9192CF40E060E0E0CFCF93DF93EC0109
:1017000085E893E056DFCE01DF91CF91F3CF1F93B1
:10171000CF93DF93EC01162F688185E893E060DFBB
:10172000612F85E893E007DF85E893E075DF41E00E
:10173000688185E893E052DF85E893E0ADDEDF91D4
:10174000CF911F910895CF92DF92EF92FF921F9356
:10175000CF93DF93EC019A01AB0160E27CEB8EEB5F
:1017600095E47BD720E030E040E85FE30DD76B01E4
:101770007C016FEF71E082ED92E013DA22E030E05D
:10178000B701A60182ED92E01CDC20E030E040E0F1
:101790005FE3C701B601F9D60E940314CBD7F62E3A
:1017A00065E172E082ED92E0FCD94AE050E06F2DF5
:1017B00082ED92E09DDA60E0CE01A9DF182F482F7C
:1017C0004F76406160E0CE0178DF4F2D6EEFCE01A5
:1017D00074DF412F60E0CE0170DF65E070E080E0F3
:1017E00090E0D0DC412F416A60E0CE01DF91CF91E3
:1017F0001F91FF90EF90DF90CF905FCF1092440445
:1018000081E0809342041092410461E082E186D637
:1018100061E083E183D6E9EBF0E080818E7F808315
:1018200080818D7F808388E48093B80085E48093F5
:10183000BC000895413208F03FC0909144049111DA
:10184000FCCF91E090934404209342042FEF209327
:10185000D70310921C04240F20931B04909343047D
:1018600090914304880F892B809343048091410415
:10187000813041F410924104809143048093BB0075
:1018800085EC01C085EE8093BC00809144048130DA
:10189000E1F380911C04841710F440911C042DE1A5
:1018A00034E0FB01D9018A2F821B841718F48D9133
:1018B0008193F9CF842F089580E008950F934132EA
:1018C00008F046C0909144049111FCCF92E09093AF
:1018D0004404009342049FEF9093D70310921C049A
:1018E00040931B04FB016DE174E0DB019A2F961B12
:1018F000941718F491919D93F9CF1092430490910D
:101900004304880F892B80934304809141048130E4
:1019100041F410924104809143048093BB0085EC14
:1019200001C085EE8093BC00222321F08091440405
:101930008230E1F38091D7038F3F61F08091D7032C
:10194000803251F08091D703803341F483E007C0A7
:1019500081E005C080E003C082E001C084E00F9117
:101960000895613298F420914404243089F46093FE
:10197000F903FC018BEF93E0DC012A2F281B2617CB
:1019800018F421912D93F9CF80E0089581E0089516
:1019900082E0089585ED8093BC008091BC0084FDB9
:1019A000FCCF10924404089585EC8093BC00109203
:1019B000440408951F920F920FB60F9211242F9393
:1019C0003F934F935F936F937F938F939F93AF93C7
:1019D000BF93EF93FF938091B900887F803609F41D
:1019E0009CC068F5883209F45BC090F4803109F43A
:1019F00054C038F4882309F4F3C0883009F44DC08A
:101A0000F2C0883109F44CC0803209F45DC0EBC0EB
:101A1000803409F468C048F4803309F455C0883331
:101A200009F0E1C08093D703A7C0803509F44FC007
:101A3000883509F45DC0883409F0D5C0D3C0883931
:101A400009F4C4C0A8F4883709F467C038F48836AC
:101A500009F463C0803709F460C0C5C0883809F450
:101A6000B5C0803909F45FC0803809F0BCC05BC0E4
:101A7000803B09F483C038F4803A09F466C0883AA0
:101A800009F47CC0B0C0803C09F4A4C0883C09F4CF
:101A9000A1C0883B09F487C0A6C08091430410C050
:101AA00090911C0480911B04981770F5E0911C0420
:101AB00081E08E0F80931C04F0E0E35EFB4F808199
:101AC0008093BB0085EC83C08093D7038BC0E091EB
:101AD0001C0481E08E0F80931C048091BB00F0E019
:101AE000E35EFB4F808390911C0480911B046BC0CC
:101AF000E0911C0481E08E0F80931C048091BB0058
:101B0000F0E0E35EFB4F80838091420481116AC064
:101B100081E08093410484EA5EC083E080934404C2
:101B20001092D803CFCF8091D803803208F04EC0F6
:101B3000E091D80381E08E0F8093D8038091BB00A1
:101B4000F0E0E752FC4F8083BDCF8091D803803214
:101B500030F4E091D803F0E0E752FC4F10821ADF36
:101B60006091D80370E0E0913D04F0913E0489ED6E
:101B700093E009951092D80317DF35C084E0809375
:101B800044041092FA031092F903E0913F04F0919B
:101B9000400409958091F903811105C081E080938B
:101BA000F9031092FB03E091FA0381E08E0F80931A
:101BB000FA03F0E0E550FC4F80818093BB009091E8
:101BC000FA038091F903981708F47CCF85E8809395
:101BD000BC0009C085EC8093BC001092440403C093
:101BE0001092D703D7DEFF91EF91BF91AF919F91F4
:101BF0008F917F916F915F914F913F912F910F90B6
:101C00000FBE0F901F901895209187043091880483
:101C100028173907B9F49091450480914604981724
:101C200089F0E0914504F0E0E95BFB4F8081209171
:101C3000450430E02F5F3F4F2F7333272093450437
:101C400090E008958FEF9FEF0895209187043091E1
:101C500088042817390781F490914504809146043F
:101C6000981751F0E0914504F0E0E95BFB4F80816B
:101C7000992787FD909508958FEF9FEF0895209104
:101C80008704309188042817390761F4809146044D
:101C90002091450490E0805C9F4F821B910960E495
:101CA00070E007C780E090E00895209187043091AC
:101CB00088042817390739F48FB7F894109246042E
:101CC000109245048FBF0895DC015196ED91FC916F
:101CD0005297208150968C9180958223808308951D
:101CE00020E001972FEF8F3F9207D9F708952091B9
:101CF0008704309188042817390789F0FC01238D67
:101D00002E7F238F2FB7F89410924604109245042B
:101D100090938804809387042FBF81E0089580E02A
:101D20000895EF92FF920F931F93CF93DF93EC01EF
:101D30008B8DEE85FF859D8581FF04C08081892381
:101D400029F444C08081892309F040C08B899C8993
:101D5000C7DF08E010E0EE24E394F12C8D899E8922
:101D6000BFDFEE85FF8580819D85892311F0FE28E8
:101D700003C08E2D8095F822EE0C0150110901153B
:101D8000110561F78F89988DABDF8B8D81FDF09404
:101D9000809146042091450490E001968F73992725
:101DA00030E08217930779F0E0914604F0E0E95BB8
:101DB000FB4FF0828091460490E001968F73992743
:101DC0008093460403C08B8D81608B8FDF91CF9110
:101DD0001F910F91FF90EF900895611101C074CF92
:101DE000DC015196ED91FC915297208150968C9197
:101DF000282B20830895DF92EF92FF920F931F9379
:101E0000CF93DF93EC01E62E898D9A8D892B39F4DF
:101E100081E090E09B838A8380E090E042C0DFB65F
:101E2000F8946B8D66956170CE01D7DF898D9A8DA0
:101E3000059656DF8B8D08E010E0FF24F39481FFB8
:101E400015C08F2D8E2119F0CE013EDF03C061E059
:101E5000CE01C3DF898D9A8D43DFFF0C015011093C
:101E60000115110571F7CE012FDF15C08F2D8E21C1
:101E700021F061E0CE01B1DF02C0CE0125DF898D06
:101E80009A8D2EDFFF0C015011090115110571F714
:101E900061E0CE01A2DFDFBE898D9A8D21DF81E076
:101EA00090E0DF91CF911F910F91FF90EF90DF9025
:101EB00008958091870490918804009709F031CFAC
:101EC00008951F920F920FB60F9211242F933F93F4
:101ED0004F935F936F937F938F939F93AF93BF9332
:101EE000EF93FF93E6DFFF91EF91BF91AF919F9149
:101EF0008F917F916F915F914F913F912F910F90B3
:101F00000FBE0F901F9018951F920F920FB60F9251
:101F100011242F933F934F935F936F937F938F93EE
:101F20009F93AF93BF93EF93FF93C3DFFF91EF9125
:101F3000BF91AF919F918F917F916F915F914F91E1
:101F40003F912F910F900FBE0F901F9018951F92E9
:101F50000F920FB60F9211242F933F934F935F93DD
:101F60006F937F938F939F93AF93BF93EF93FF9361
:101F7000A0DFFF91EF91BF91AF919F918F917F91E2
:101F80006F915F914F913F912F910F900FBE0F90E6
:101F90001F9018951F93CF93DF93EC01162F61E0EC
:101FA000812F84D261E0812FB9D2812F90E0FC0192
:101FB000EE5BFE4FE491E88BFC01EA5AFE4FE491A0
:101FC000F0E0EE0FFF1FEC58FE4F859194919A8B35
:101FD000898BDF91CF911F9108951F93CF93DF934A
:101FE000EC01162F60E0812F61D28B8D81FD03C043
:101FF00061E0812F93D21C87812F90E0FC01EE5B82
:10200000FE4FE491ED87FC01EA5AFE4FE491F0E0C7
:10201000EE0FFF1FE659FE4F859194919F878E87A3
:10202000DF91CF911F910895FF920F931F93CF934C
:10203000DF93EC01F62E522F1B821A8208EE13E07A
:1020400020E030E00C831D832E833F838BE292E0FF
:10205000998388831C8A1B8A1E8A1D8A188E1F8A70
:102060001A8E198E8B8D8E7F50FB81F98B8F642F8A
:10207000CE0190DF6F2DCE01DF91CF911F910F9197
:10208000FF90ABCF0F931F93CF93DF93EC011A8E8A
:10209000198E188E1F8A1E8A1D8AA2E9B0E080E080
:1020A00090E0FD01059115912591349104171507D4
:1020B0002607370719F54CE0489F9001499F300DDE
:1020C0001124F901EA56FF4F859194919C8B8B8BDB
:1020D000F901E856FF4F859194919E8B8D8BF90104
:1020E000E656FF4F85919491988F8F8B24563F4FE2
:1020F000F901859194919A8F898F08C001961C9659
:102100008D30910509F0CDCF1C8A1B8A8F89988D5F
:10211000892B09F442C08C858631E0F52091680056
:10212000883050F091E08E3008F490E081E001C0FA
:10213000880F9A95EAF701C084E0822B80936800AB
:102140002C85283038F02E3040F0263148F0E0E081
:10215000F0E008C0EDE6F0E005C0EBE6F0E002C01C
:10216000ECE6F0E03081283030F481E001C0880FE7
:102170002A95EAF70DC0822F90E02E3010F40897D0
:1021800001C00E9791E001C0990F8A95EAF7892F57
:10219000832B8083898D9A8DA3DDCE01DF91CF9132
:1021A0001F910F91A4CDFC014485463150F5483074
:1021B00028F04E3030F4EBE6F0E005C0EDE6F0E05C
:1021C00002C0ECE6F0E05081483040F481E090E05D
:1021D000042E01C0880F0A94EAF710C0242F30E0C3
:1021E0004E3018F42850310902C02E50310981E0D8
:1021F00090E0022E01C0880F0A94EAF780958523AB
:10220000808308952BE232E0FC0131832083CBCF21
:10221000DC01862F90E0FC01EE5BFE4FE49114960A
:10222000EC93149750E0FA01EE5BFE4FE4911596A3
:10223000EC931597FC01EA5AFE4F849190E0880FC9
:10224000991FFC01EC58FE4F6591749117967C9391
:102250006E931697FA01EA5AFE4FE491F0E0EE0F02
:10226000FF1FE659FE4F459154911B965C934E9388
:102270001A9782589E4FFC018591949119969C93D0
:102280008E931897C901853F21E0920714F084EFDF
:1022900091E049E3489F9001499F300D1124245E4D
:1022A0003F4F1D963C932E931C9708950F931F93B9
:1022B000CF93DF93EC01E885F98580819C81892BA0
:1022C0008083EE81FF8190818C818095892380833A
:1022D00084E090E00E94E608EE81FF8180819C818D
:1022E000892B80838AE090E00E94E608EE81FF81DE
:1022F00090818C81809589238083E885F985908100
:102300008C818095892380830E949808605B794B3B
:102310008F4F9F4F6E877F87888B998BEA85FB85D0
:1023200080819D81892359F00E9498080E851F8520
:1023300028893989061717072807390778F7EA85A2
:10234000FB8580819D81892369F40E9498080E8510
:102350001F8528893989061717072807390778F74D
:1023600080E00DC00E9498082C853D85620F731F88
:10237000811D911D6E877F87888B998B81E0DF910E
:10238000CF911F910F9108950F931F93CF93DF93D8
:10239000EC018CDF882389F0EA85FB8580819D81B3
:1023A000892371F00E9498080E851F852889398934
:1023B000061717072807390778F720E030E00CC028
:1023C0000E9498082C853D85255031094E855F85F2
:1023D000241B350B260F371FC901DF91CF911F91A9
:1023E0000F910895D1DF31E020E0009709F430E04B
:1023F0004C9669E370E049D3832F922F8617970795
:1024000008F4CB0108951F920F920FB60F9211247A
:102410002F933F934F935F936F937F938F939F93EC
:10242000AF93BF93EF93FF93E0918904F0918A04F7
:10243000309709F00995FF91EF91BF91AF919F916E
:102440008F917F916F915F914F913F912F910F905D
:102450000FBE0F901F901895833069F028F48130DB
:10246000A1F0823011F514C08630B1F08730C1F090
:102470008430D9F404C0809180008F7703C08091AC
:1024800080008F7D80938000089584B58F7702C08F
:1024900084B58F7D84BD08958091B0008F7703C08F
:1024A0008091B0008F7D8093B0000895CF93DF932B
:1024B00090E0FC01EE5BFE4F4491FC01EA5AFE4FB6
:1024C0008491882341F190E0880F991FFC01E25824
:1024D000FE4F25913491D9018C589E4FFC01859176
:1024E0009491C82FD92F9FB7F8948C91611106C091
:1024F000409584238C938881842308C0623041F402
:10250000242F209582238C938881842B888302C07A
:10251000842B8C939FBFDF91CF9108950F931F93CE
:10252000CF93DF931F92CDB7DEB7282F30E0F901AC
:10253000E25DFE4F8491F901EE5BFE4F1491F901CB
:10254000EA5AFE4F04910023C9F0882319F06983E9
:1025500083DF6981E02FF0E0EE0FFF1FEC58FE4FA4
:1025600085919491DC019FB7F8948C91611103C01F
:102570001095812301C0812B8C939FBF0F90DF9119
:10258000CF911F910F9108955058BB27AA270ED0C5
:10259000B1C1A2D130F0A7D120F031F49F3F11F4A6
:1025A0001EF497C10EF4E095E7FB64C1E92FB3D1A7
:1025B00080F3BA17620773078407950718F071F460
:1025C0009EF5E2C10EF4E0950B2EBA2FA02D0B0163
:1025D000B90190010C01CA01A0011124FF27591B68
:1025E00099F0593F50F4503E68F11A16F040A22F6E
:1025F000232F342F4427585FF3CF469537952795DF
:10260000A795F0405395C9F77EF41F16BA0B620BDD
:10261000730B840BBAF09150A1F0FF0FBB1F661F24
:10262000771F881FC2F70EC0BA0F621F731F841F67
:1026300048F4879577956795B795F7959E3F08F08D
:10264000B3CF9395880F08F09927EE0F979587954C
:102650000895ECD008F481E008950CD04BC143D12B
:1026600040F03AD130F021F45F3F19F003C151112D
:102670008CC12FC150D198F39923C9F35523B1F3DD
:10268000951B550BBB27AA2762177307840738F0E1
:102690009F5F5F4F220F331F441FAA1FA9F333D040
:1026A0000E2E3AF0E0E830D091505040E695001CF4
:1026B000CAF729D0FE2F27D0660F771F881FBB1FB0
:1026C000261737074807AB07B0E809F0BB0B802D8A
:1026D000BF01FF2793585F4F2AF09E3F510568F0D6
:1026E000C9C053C15F3FECF3983EDCF38695779504
:1026F0006795B795F7959F5FC9F7880F911D9695D8
:10270000879597F90895E1E0660F771F881FBB1F33
:10271000621773078407BA0720F0621B730B840BE0
:10272000BA0BEE1F88F7E095089504D06894B111B4
:102730002CC10895F8D088F09F5790F0B92F9927B1
:10274000B751A0F0D1F0660F771F881F991F1AF0BC
:10275000BA95C9F712C0B13081F016D1B1E0089531
:1027600013C1672F782F8827B85F39F0B93FCCF3B2
:10277000869577956795B395D9F73EF490958095B2
:10278000709561957F4F8F4F9F4F0895E89409C0D2
:1027900097FB3EF490958095709561957F4F8F4F94
:1027A0009F4F9923A9F0F92F96E9BB279395F695AA
:1027B000879577956795B795F111F8CFFAF4BB0F28
:1027C00011F460FF1BC06F5F7F4F8F4F9F4F16C08C
:1027D000882311F096E911C0772321F09EE8872F16
:1027E000762F05C0662371F096E8862F70E060E0D2
:1027F0002AF09A95660F771F881FDAF7880F96954B
:10280000879597F90895A9D080F09F3740F49111EA
:102810000EF0BBC060E070E080E89FEB089526F406
:102820001B16611D711D811D2BC045C0990F00082D
:10283000550FAA0BE0E8FEEF16161706E807F90792
:10284000C0F012161306E407F50798F0621B730B2D
:10285000840B950B39F40A2661F0232B242B252BAE
:1028600021F408950A2609F4A140A6958FEF811D51
:10287000811D089597F99F6780E870E060E00895F2
:10288000882371F4772321F09850872B762F07C087
:10289000662311F499270DC09051862B70E060E0FB
:1028A0002AF09A95660F771F881FDAF7880F96959A
:1028B000879597F908959F3F31F0915020F48795BF
:1028C00077956795B795880F911D9695879597F998
:1028D00008959FEF80EC089500240A9416161706B9
:1028E00018060906089500240A9412161306140601
:1028F00005060895092E0394000C11F4882352F064
:10290000BB0F40F4BF2B11F460FF04C06F5F7F4F1B
:102910008F4F9F4F089557FD9058440F551F59F002
:102920005F3F71F04795880F97FB991F61F09F3FBC
:1029300079F087950895121613061406551FF2CFE5
:102940004695F1DF08C0161617061806991FF1CF35
:1029500086957105610508940895E5DFA0F0BEE74E
:10296000B91788F4BB279F3860F41616B11D672F7E
:10297000782F8827985FF7CF869577956795B11D53
:1029800093959639C8F30895E894BB27662777276F
:10299000CB0197F908954ADF08F48FEF08950BD023
:1029A000A9CF9ADF28F09FDF18F0952309F062CFB6
:1029B00090CF1124EACFAFDFA0F3959FD1F3950F0D
:1029C00050E0551F629FF001729FBB27F00DB11DB3
:1029D000639FAA27F00DB11DAA1F649F6627B00D43
:1029E000A11D661F829F2227B00DA11D621F739F2C
:1029F000B00DA11D621F839FA00D611D221F749F3A
:102A00003327A00D611D231F849F600D211D822F80
:102A1000762F6A2F11249F5750408AF0E1F08823C7
:102A20004AF0EE0FFF1FBB1F661F771F881F9150D4
:102A30005040A9F79E3F510570F01CCFA6CF5F3FD5
:102A4000ECF3983EDCF3869577956795B795F79507
:102A5000E7959F5FC1F7FE2B880F911D969587958F
:102A600097F90895E3DE880B990B0895A29FB001B2
:102A7000B39FC001A39F700D811D1124911DB29FB2
:102A8000700D811D1124911D0895AA1BBB1B51E1DE
:102A900007C0AA1FBB1FA617B70710F0A61BB70BCE
:102AA000881F991F5A95A9F780959095BC01CD0173
:102AB000089597FB072E16F4009406D077FD08D0F2
:102AC000E4DF07FC05D03EF4909581959F4F089573
:102AD000709561957F4F0895A1E21A2EAA1BBB1B2A
:102AE000FD010DC0AA1FBB1FEE1FFF1FA217B307DA
:102AF000E407F50720F0A21BB30BE40BF50B661FF0
:102B0000771F881F991F1A9469F7609570958095B3
:102B100090959B01AC01BD01CF010895052E97FB57
:102B200016F400940FD057FD05D0D6DF07FC02D075
:102B300046F408C050954095309521953F4F4F4F32
:102B40005F4F089590958095709561957F4F8F4F59
:102B50009F4F0895EE0FFF1F0590F491E02D09940B
:102B600085DFA59F900DB49F900DA49F800D911DB2
:102B7000112408958F929F92AF92BF92CF92DF92CD
:102B8000EF92FF92CF93DF93EC01688179818A8184
:102B90009B81611571058105910521F464E279ED50
:102BA0008BE597E02DE133EF41E050E0B7DF4901DD
:102BB0005A019B01AC01A7EAB1E4D2DF6B017C01B1
:102BC000ACEEB4EFA5019401BFD2C60ED71EE81E2D
:102BD000F91EF7FE06C081E0C81AD108E10880E8B6
:102BE000F80AC882D982EA82FB82C701B6019F77C0
:102BF000DF91CF91FF90EF90DF90CF90BF90AF909B
:102C00009F908F900895B6CF86E091E0B3CF609308
:102C100006017093070180930801909309010895BC
:102C2000AEE0B0E0E5E1F6E1A1C28C01CA0146E008
:102C30004C831A83098377FF02C060E070E861501B
:102C400071097E836D83A901BC01CE01019611D06B
:102C50004D815E8157FD0AC02F8138854217530789
:102C60000CF49A01F801E20FF31F10822E96E4E0B3
:102C700099C2ACE0B0E0EEE3F6E16AC27C016B0120
:102C80008A01FC0117821682838181FFB0C1CE01C7
:102C900001964C01F7019381F60193FD859193FF15
:102CA00081916F01882309F49EC1853239F493FD27
:102CB000859193FF81916F01853221F4B70190E0F6
:102CC000B1D1E8CF512C312C20E02032A0F48B324E
:102CD00069F030F4803259F0833269F420612CC0FD
:102CE0008D3239F0803339F4216026C022602460AF
:102CF00023C0286021C027FD27C030ED380F3A30AF
:102D000078F426FF06C0FAE05F9E300D1124532EA2
:102D100013C08AE0389E300D1124332E20620CC07F
:102D20008E3221F426FD5FC1206406C08C3611F47A
:102D3000206802C0883641F4F60193FD859193FF27
:102D400081916F018111C1CF982F9F7D9554933050
:102D500028F40C5F1F4FFFE3F9830DC0833631F079
:102D6000833771F0833509F057C021C0F8018081A5
:102D700089830E5F1F4F44244394512C540114C087
:102D80003801F2E06F0E711CF801A080B18026FFBF
:102D900003C0652D70E002C06FEF7FEFC5012C8787
:102DA00036D12C0183012C852F77222E16C03801B5
:102DB000F2E06F0E711CF801A080B18026FF03C005
:102DC000652D70E002C06FEF7FEFC5012C8714D135
:102DD0002C012C852068222E830123FC19C0832D11
:102DE00090E048165906A0F4B70180E290E01AD1AD
:102DF0003A94F5CFF50127FC859127FE81915F017B
:102E0000B70190E00FD131103A94F1E04F1A510818
:102E10004114510479F7DEC0843611F0893631F55A
:102E2000F80127FF07C060817181828193810C5F67
:102E30001F4F08C060817181882777FD8095982F8A
:102E40000E5F1F4F2F76B22E97FF09C09095809589
:102E5000709561957F4F8F4F9F4F2068B22E2AE06B
:102E600030E0A40111D1A82EA81843C0853729F459
:102E70002F7EB22E2AE030E025C0F22FF97FBF2E40
:102E80008F36C1F018F4883579F0ADC0803719F06D
:102E9000883721F0A8C02F2F2061B22EB4FE0DC0BC
:102EA0008B2D8460B82E09C024FF0AC09F2F966026
:102EB000B92E06C028E030E005C020E130E002C0B5
:102EC00020E132E0F801B7FE07C0608171818281A4
:102ED00093810C5F1F4F06C06081718180E090E09C
:102EE0000E5F1F4FA401D0D0A82EA818FB2DFF778E
:102EF000BF2EB6FE0BC02B2D2E7FA51450F4B4FEB2
:102F00000AC0B2FC08C02B2D2E7E05C07A2C2B2DBA
:102F100003C07A2C01C0752C24FF0DC0FE01EA0D00
:102F2000F11D8081803311F4297E09C022FF06C083
:102F30007394739404C0822F867809F0739423FDF0
:102F400012C020FF06C05A2C731418F4530C5718E3
:102F5000732C731460F4B70180E290E02C8762D088
:102F600073942C85F6CF731410F4371801C0312CEC
:102F700024FF11C0B70180E390E02C8753D02C854B
:102F800022FF16C021FF03C088E590E002C088E759
:102F900090E0B7010CC0822F867851F021FD02C06D
:102FA00080E201C08BE227FD8DE2B70190E03AD0CC
:102FB000A51430F4B70180E390E034D05A94F8CFF0
:102FC000AA94F401EA0DF11D8081B70190E02AD0A6
:102FD000A110F6CF332009F45DCEB70180E290E076
:102FE00021D03A94F7CFF7018681978102C08FEF05
:102FF0009FEF2C96E2E1C8C0FC0105906150704043
:103000000110D8F7809590958E0F9F1F0895FC01B1
:103010006150704001900110D8F7809590958E0F07
:103020009F1F08950F931F93CF93DF93182F092F9E
:10303000EB018B8181FD03C08FEF9FEF20C082FFEA
:1030400010C04E815F812C813D81421753077CF473
:10305000E881F9819F012F5F3F4F398328831083D7
:1030600006C0E885F985812F0995892B29F72E81DE
:103070003F812F5F3F4F3F832E83812F902FDF9122
:10308000CF911F910F910895FA01AA27283051F18D
:10309000203181F1E8946F936E7F6E5F7F4F8F4F89
:1030A0009F4FAF4FB1E03ED0B4E03CD0670F781FE8
:1030B000891F9A1FA11D680F791F8A1F911DA11DCD
:1030C0006A0F711D811D911DA11D20D009F4689406
:1030D0003F912AE0269F11243019305D3193DEF6AE
:1030E000CF010895462F4770405D4193B3E00FD064
:1030F000C9F7F6CF462F4F70405D4A3318F0495D4F
:1031000031FD4052419302D0A9F7EACFB4E0A69531
:103110009795879577956795BA95C9F70097610553
:10312000710508959B01AC010A2E069457954795A9
:1031300037952795BA95C9F7620F731F841F951F9E
:10314000A01D0895B7FF0CCD0BDD821B930B0895D6
:103150002F923F924F925F926F927F928F929F92A7
:10316000AF92BF92CF92DF92EF92FF920F931F9395
:10317000CF93DF93CDB7DEB7CA1BDB0B0FB6F89446
:10318000DEBF0FBECDBF09942A88398848885F8486
:103190006E847D848C849B84AA84B984C884DF80F7
:1031A000EE80FD800C811B81AA81B981CE0FD11DDB
:1031B0000FB6F894DEBF0FBECDBFED01089511E04C
:1031C000CEE8D1E003C0FE01C7DC2296C039D107AA
:0631D000D1F7F894FFCFD7
:1031D60000008B04200001000000537769746368C7
:1031E600696E6720746F2072656D6F7465206D6FF0
:1031F600646500537769746368696E6720746F202D
:1032060073656E736F72206D6F646500526F626FC7
:103216007420696E697469616C697A6564005265C7
:1032260063656976656420636861723A004D6F76FE
:10323600696E6720666F7277617264007374617479
:10324600653A2025642C2063757272656E74546924
:103256006D653A20256C752C2064697374616E6304
:10326600653A2025752072656D6F74653A202825AC
:10327600642C6C3A25642C723A25642C6B3A2564CE
:10328600290A0044697374616E63653A00000000A0
:10329600000201F00000000000F40000000000172A
:1032A6000200000000F90393059B03CA03AE03EE78
:1032B600036E616E00696E66006F7666002E000012
:1032C6000000009B0A6F0A440A4C0A5F0A6E0A4510
:1032D6007374696D61746564207072652D736361C2
:1032E6006C653A200046696E616C207072652D73BC
:1032F60063616C653A200000000000FB0E93053FF9
:083306000E040E250E550E0009
:00000001FF
