:100000005EC0000083C0000081C000007FC000000F
:100010007DC000007BC0000079C0000077C00000F8
:1000200075C0000073C0000071C000006CC7000004
:100030006DC000006BC0000069C0000067C0000018
:10004000DBC5000063C000002DC200006CC20000D0
:100050005DC000005BC0000059C0000057C0000038
:100060000C94AC0D53C0000000000007000201001A
:100070000003040600000000000000000102040864
:100080001020408001020408102001020408102002
:10009000040404040404040402020202020203032E
:1000A0000303030300000000250028002B000000CC
:1000B0000000240027002A00F1004F03DE0B11246A
:1000C0001FBECFEFD8E0DEBFCDBF11E0A0E0B1E0B2
:1000D000EAEFF9E202C005900D92A63CB107D9F70C
:1000E00013E0A6ECB1E001C01D92AC3FB107E1F70F
:1000F00010E0CEEBD0E004C02297FE010E94F7147E
:10010000C83BD107C9F721D30C94FB1479CF409198
:100110000C0161E080911B0290911C020C94570A23
:1001200040910C0162E080911B0290911C020C94A2
:10013000570A40910C0161E080911D0290911E02CE
:100140000C94570A40910C0162E080911D0290913D
:100150001E020C94570ACF93DF9360E476E08FE1A0
:1001600092E00E947709CAE0D1E061E088815DD623
:1001700060911402888191D66AE070E088E192E093
:100180000E94DB0864EB70E088E192E00E941309B2
:1001900040E050E062E073E48DEE91E00E94771160
:1001A00040E050E062E073E486EC91E00E94771159
:1001B00040E050E060E870E48DEE91E00E947D1137
:1001C00040E050E060E870E486EC91E00E947D1130
:1001D00040E855E260E070E083E692E0DF91CF9185
:1001E000DDC160E68FE192E00E94120A41E068EC16
:1001F00070E08FE192E00E94BE0990931E0280930E
:100200001D0242E068EC70E08FE192E00E94BE09BE
:1002100090931C0280931B0288E192E030D749E959
:1002200050E062EA70E08DEE91E00E94D71040E964
:1002300050E067E870E086EC91E00C94D71083E61C
:1002400092E094D01816190604F583E692E0BDD02A
:1002500090931702809316026FE171E083E692E0BB
:10026000BBD260911602709117024AE050E083E61B
:1002700092E0A6D360911602709117026270772700
:100280004AE050E083E692E09BD38091160280FF23
:1002900005C041E050E060E070E009C081FF04C0AB
:1002A0004FEF5FEFBA0103C040E050E0BA0186ECC7
:1002B00091E00E9445118091160282FF05C041E045
:1002C00050E060E070E009C083FF04C04FEF5FEFD3
:1002D000BA0103C040E050E0BA018DEE91E00E9407
:1002E00045118091160284FF0CC068E371E083E63B
:1002F00092E08ED281E090E09093150280931402F8
:100300000BC085FF09C064E471E083E692E080D20F
:1003100010921502109214028091160286FF19C0E5
:1003200061E571E083E692E073D260E070E088E11D
:1003300092E079D768EE73E080E090E0E3D464EB7C
:1003400070E088E192E06FD768EE73E080E090E0C3
:10035000D9D48DEE91E00E94571186EC91E00E9475
:1003600057116091140280910A0197C5FC018485A0
:100370009585FC01E05CFF4F20813181FC01EE5B43
:10038000FF4F80819181281B390B2F733327C901BF
:100390000895FC0184859585FC01E05CFF4F408158
:1003A0005181FC01EE5BFF4F2081318142175307E1
:1003B00041F00190F081E02DE80FF91F208130E03D
:1003C00002C02FEF3FEFC9010895FC018485958598
:1003D000FC01E05CFF4F40815181FC01EE5BFF4F6F
:1003E000208131814217530781F0A081B181A80F8C
:1003F000B91F8C91208131812F5F3F4F2F7333279D
:1004000031832083282F30E002C02FEF3FEFC90156
:100410000895FC0181A1882329F0A489B5898C91D4
:1004200086FFFBCF11A20895CF93DF93FC012685B1
:100430003785D901A05CBF4F8D919C911197019692
:100440008F739927E901CE5BDF4F4881598184176B
:100450009507D9F30D90BC91A02DA20FB31F6C93FB
:10046000A685B785A05CBF4F11969C938E93A689F5
:10047000B7892C9181E090E0078C02C0880F991F0A
:100480000A94E2F7282B2C9381E081A30488F58954
:10049000E02D80818064808381E090E0DF91CF91C6
:1004A000089508951F920F920FB60F9211242F9363
:1004B0003F934F938F939F93EF93FF938091C0004F
:1004C00082FD1CC04091C6008091090390910A03EF
:1004D00001968F73992720910B0330910C0382179B
:1004E000930771F0E0910903F0910A03E753FD4F80
:1004F000408390930A038093090302C08091C60051
:10050000FF91EF919F918F914F913F912F910F907C
:100510000FBE0F901F90189583E692E027DF892B7E
:1005200009F0BFCF08951F920F920FB60F921124BA
:100530002F933F938F939F93EF93FF932091C50247
:100540003091C6028091C7029091C80228173907DE
:1005500031F48091C1008F7D8093C10014C0E0917F
:10056000C702F091C802EB57FD4F20818091C7026E
:100570009091C80201968F7399279093C802809337
:10058000C7022093C600FF91EF919F918F913F91F9
:100590002F910F900FBE0F901F901895CF92DF9262
:1005A000EF92FF92CF93DF93EC016A017B0141153B
:1005B00081EE580761057105F9F0EC89FD8981E04C
:1005C00090E008A002C0880F991F0A94E2F7808388
:1005D00060E079E08DE390E0A70196010E94AD1400
:1005E000215031094109510956954795379527956D
:1005F000211580E1380798F0EC89FD89108260E8C8
:1006000074E88EE190E0A70196010E94AD1421509C
:100610003109410951095695479537952795E8893C
:10062000F9893083EA89FB89208319A2EE89FF8941
:10063000408181E090E09C010C8C02C0220F331FAE
:100640000A94E2F7422B4083EE89FF8940819C01A6
:100650000D8C02C0220F331F0A94E2F7422B408315
:10066000EE89FF8940819C010E8C02C0220F331F4E
:100670000A94E2F7422B4083EE89FF8920810F8C98
:1006800002C0880F991F0A94E2F780958223808325
:10069000DF91CF91FF90EF90DF90CF90089510926F
:1006A00066021092650288EE93E0A0E0B0E08093CD
:1006B000670290936802A0936902B0936A028CE586
:1006C00091E0909364028093630289EC92E09093AE
:1006D000700280936F0285E892E09093720280939B
:1006E000710285EC90E0909374028093730284EC25
:1006F00090E0909376028093750280EC90E0909366
:1007000078028093770281EC90E090937A02809354
:10071000790282EC90E090937C0280937B0286ECDD
:1007200090E090937E0280937D0284E080937F022C
:1007300083E08093800287E08093810285E080934C
:10074000820281E08093830208950AD304DDCCE81D
:10075000D2E075DD2097E9F3DFDEFBCFCF92DF92A9
:10076000EF92FF920F931F93CF93DF936C01EB01F6
:100770007A01E60EF71E00E010E00BC06991D60189
:10078000ED91FC910190F081E02DC6010995080FD3
:10079000191FCE15DF0591F7C801DF91CF911F9189
:1007A0000F91FF90EF90DF90CF9008956115710544
:1007B00081F0DB010D900020E9F7AD0141505109B6
:1007C000461B570BDC01ED91FC910280F381E02D7B
:1007D000099480E090E00895E9CFDC01ED91FC916F
:1007E0000190F081E02D09940F931F93CF93DF9335
:1007F000EC016DE0F2DF8C016AE0CE01EEDF9C01DE
:10080000200F311FC901DF91CF911F910F910895E2
:100810000F931F93CF93DF93EC01C8DF8C01CE01C0
:10082000E3DF9801280F391FC901DF91CF911F9194
:100830000F9108954F925F926F927F929F92AF9225
:10084000BF92CF92DF92EF92FF920F931F93CF93BD
:10085000DF93CDB7DEB7A1970FB6F894DEBF0FBE1A
:10086000CDBF5C016A017B01922E19A281E0821743
:1008700010F08AE0982E8E010F5D1F4F492C512CED
:10088000612C712CC701B601A30192010E94AD1425
:100890008C2D929E80191124015011098A3014F474
:1008A000805D01C0895CF801808369017A01C1140F
:1008B000D104E104F10431F7B801C50177DFA19655
:1008C0000FB6F894DEBF0FBECDBFDF91CF911F9161
:1008D0000F91FF90EF90DF90CF90BF90AF909F90DF
:1008E0007F906F905F904F9008952115310541F4EE
:1008F000DC01ED91FC910190F081E02D642F0994D1
:1009000099CF0F931F93CF93DF93EC019A01462F5A
:1009100050E060E070E0E9DF8C01CE0165DF980116
:10092000280F391FC901DF91CF911F910F910895B1
:10093000CF92DF92EF92FF920F931F93CF93DF93AB
:10094000EC016A017B012115310579F4E881F98117
:100950000190F081E02D642FDF91CF911F910F91D5
:10096000FF90EF90DF90CF9009942A30310519F471
:1009700077FD0DC02AE0B701A601CE01DF91CF912E
:100980001F910F91FF90EF90DF90CF9053CF6DE2CA
:1009900024DF8C0144275527BA014C195D096E09E3
:1009A0007F092AE0CE0146DF080F191FC801DF9139
:1009B000CF911F910F91FF90EF90DF90CF9008950E
:1009C0000F931F93CF93DF93EC019A01AB0166273E
:1009D00057FD6095762FACDF8C01CE0105DF9801C5
:1009E000280F391FC901DF91CF911F910F910895F1
:1009F0007F928F929F92AF92BF92CF92DF92EF92AF
:100A0000FF920F931F93CF93DF93EC016A017B0159
:100A1000122F9A01AB01C701B6010E9478148823F6
:100A200019F068E671E032C046015701E894B7F862
:100A30002FEF3FEF4FE75FE7C501B4010E94781445
:100A400081110DC02FEF3FEF4FE75FE7C501B40104
:100A50000E942D1218161CF46CE671E017C02FEFDF
:100A60003FEF4FE75FE4C701B6010E94CF131816AE
:100A70000CF40AC02FEF3FEF4FE75FECC701B60160
:100A80000E942D1287FF11C060E771E0CE01DF9157
:100A9000CF911F910F91FF90EF90DF90CF90BF907B
:100AA000AF909F908F907F9081CE20E030E0A901A1
:100AB000C701B6010E942D1287FF09C06DE2CE0169
:100AC0008CDE5C01F7FAF094F7F8F09402C0A12CE8
:100AD000B12C00E060E070E080E09FE307C020E020
:100AE00030E040E251E40E9431120F5F0113F7CF72
:100AF000262F372F482F592FC701B6010E94C91141
:100B0000762E872E982EC92E0E949E12D62EE72E64
:100B1000F82E092F0E94CA129B01AC01672D782D77
:100B2000892D9C2D0E94C811C62E972E882E792EB5
:100B30002AE04D2D5E2D6F2D702FCE017BDE7C01C6
:100B4000EA0CFB1C1123A9F164E771E0CE012EDE53
:100B5000E80EF91E2EC020E030E040E251E46C2D9A
:100B6000792D882D972D0E94D313762E072F6C0197
:100B70009D2D0E9499124B01AA2497FCA094BA2C97
:100B80002AE030E0B501A401CE01D2DEE80EF91E64
:100B9000C501B4010E94CC129B01AC01672D702FDE
:100BA0008C2D9D2D0E94C811C62E972E882E792E31
:100BB00011501111D0CFC701DF91CF911F910F912B
:100BC000FF90EF90DF90CF90BF90AF909F908F906D
:100BD0007F9008950F931F93CF93DF93EC0108DF6D
:100BE0008C01CE0101DE9801280F391FC901DF9168
:100BF000CF911F910F9108951F920F920FB60F92F0
:100C000011242F933F938F939F93AF93BF93809122
:100C10000D0390910E03A0910F03B091100330913A
:100C20001503232F2D5F2D3720F40196A11DB11D33
:100C300005C0232F2A570296A11DB11D209315032D
:100C400080930D0390930E03A0930F03B0931003B2
:100C50008091110390911203A0911303B09114039A
:100C60000196A11DB11D8093110390931203A093CF
:100C70001303B0931403BF91AF919F918F913F9154
:100C80002F910F900FBE0F901F9018950F931F93E9
:100C90008FB7F89400910D0310910E0320910F036C
:100CA000309110038FBFB801C9011F910F910895B2
:100CB0000F931F939FB7F8940091110310911203A3
:100CC000209113033091140386B5A89B06C08F3F73
:100CD00021F00F5F1F4F2F4F3F4F9FBF322F212F0C
:100CE000102F0027080F111D211D311D42E0000F9C
:100CF000111F221F331F4A95D1F7B801C9011F9157
:100D00000F910895CF92DF92EF92FF92CF93DF93EE
:100D10006B017C01CDDFEB010DC0CADF6C1B7D0BCD
:100D2000683E734038F081E0C81AD108E108F10844
:100D3000C851DC4FC114D104E104F10471F7DF9113
:100D4000CF91FF90EF90DF90CF900895019739F009
:100D5000880F991F880F991F02970197F1F708953F
:100D6000789484B5826084BD84B5816084BD85B586
:100D7000826085BD85B5816085BDEEE6F0E080814D
:100D800081608083E1E8F0E010828081826080836E
:100D9000808181608083E0E8F0E0808181608083F1
:100DA000E1EBF0E0808184608083E0EBF0E0808123
:100DB00081608083EAE7F0E08081846080838081C5
:100DC000826080838081816080838081806880836D
:100DD0001092C1000895833069F028F48130A1F0A9
:100DE000823011F514C08630B1F08730C1F0843004
:100DF000D9F404C0809180008F7703C08091800077
:100E00008F7D80938000089584B58F7702C084B56C
:100E10008F7D84BD08958091B0008F7703C080914D
:100E2000B0008F7D8093B0000895CF93DF9390E062
:100E3000FC01E458FF4F4491FC01E057FF4F8491BF
:100E4000882341F190E0880F991FFC01E255FF4F84
:100E500025913491D9018C559F4FFC018591949136
:100E6000C82FD92F9FB7F8948C91611106C0409577
:100E700084238C938881842308C0623041F4242F1A
:100E8000209582238C938881842B888302C0842BB5
:100E90008C939FBFDF91CF9108950F931F93CF93B2
:100EA000DF931F92CDB7DEB7282F30E0F901E85964
:100EB000FF4F8491F901E458FF4F1491F901E05775
:100EC000FF4F04910023C9F0882319F0698383DF61
:100ED0006981E02FF0E0EE0FFF1FEC55FF4F859189
:100EE0009491DC019FB7F8948C91611103C0109527
:100EF000812301C0812B8C939FBF0F90DF91CF91F5
:100F00001F910F9108951F920F920FB60F92112407
:100F10002F933F934F935F936F937F938F939F9301
:100F2000AF93BF93EF93FF938091170387FF05C0A3
:100F300010928500109284001AC020911703332765
:100F400027FD30958091160390E0281739077CF42F
:100F500080911703992787FD9095FC01EE0FFF1FE5
:100F6000E80FF91FE85EFC4F808186FD36C0809156
:100F700017038F5F8093170320911703332727FDF3
:100F800030958091160390E028173907BCF58091C1
:100F900017038C30E4F132C080911703992787FD45
:100FA0009095FC01EE0FFF1FE80FF91FE85EFC4F64
:100FB000808161E08F7371DF51C080E49CE905C0DE
:100FC000809184009091850004969093890080938D
:100FD00088008FEF8093170341C0809117039927F2
:100FE00087FD9095FC01EE0FFF1FE80FF91FE85EEB
:100FF000FC4F808160E08F7350DFB9CF8091840017
:1010000090918500049680349C49B8F2D9CF8091A4
:1010100084009091850020911703332727FD309598
:10102000F901EE0FFF1FE20FF31FE85EFC4F218175
:101030003281820F931F9093890080938800809162
:101040001703992787FD9095FC01EE0FFF1FE80F0E
:10105000F91FE85EFC4F808186FD9ECFFF91EF91E6
:10106000BF91AF919F918F917F916F915F914F91C0
:101070003F912F910F900FBE0F901F9018952091C8
:1010800016032C30A0F4FC012083822F8F5F809305
:101090001603822F90E0FC01EE0FFF1FE80FF91FEF
:1010A000E85EFC4F88EB9BE09283818308952FEFED
:1010B000FC0120830895DF92EF92FF920F931F931C
:1010C000CF93DF93EC01D62E7A01890188818C3091
:1010D00008F064C061E08D2DA8DE8881A82FB0E003
:1010E000FD01EE0FFF1FEA0FFB1FE85EFC4F2D2DE9
:1010F0002F739081907C922B908360E272E06E1946
:101100007F0977FF02C06D5F7F4F75956795759575
:101110006795698340E659E0401B510B57FF02C0B9
:101120004D5F5F4F55954795559547954A836CE0C0
:101130000E94A1149CE0899FB001112420E030E0BE
:10114000A901460F571FFA01EE0FFF1FE40FF51F0D
:10115000E85EFC4F908196FD15C02F5F3F4F2C300D
:10116000310571F71DC01092800082E080938100EC
:101170001092850010928400B19A80916F00826075
:1011800080936F00888190E0FC01EE0FFF1FE80F55
:10119000F91FE85EFC4F808180648083888103C0F2
:1011A000882309F3EFCFDF91CF911F910F91FF902B
:1011B000EF90DF90089520E639E040E252E07BCFE7
:1011C000FC0180818C3070F5918128E830E0291B8A
:1011D000310997FD3395220F331F220F331F6217FA
:1011E00073077CF0928128E532E0291B310997FDD5
:1011F0003395220F331F220F331F621773070CF42E
:101200009B014FB7F89490E0FC01EE0FFF1FE80F31
:10121000F91FE85EFC4F22503109220F331F328341
:1012200021834FBF0895AF92BF92CF92DF92EF928A
:10123000FF920F931F93CF93DF93EC01603282E014
:1012400078070CF041C077FD04C0653B710524F4BC
:1012500005C060E070E002C064EB70E0298188E8BE
:1012600090E0821B910927FD9395880F991F880FA5
:10127000991F5C01CC24B7FCC094DC2C882777FD37
:101280008095982F2A8148E552E0421B510927FD9D
:101290005395440F551F440F551F8A01222717FDF0
:1012A0002095322F3F932F931F930F9314EBE12E32
:1012B000F12C00E010E020E030E0A9010E94831151
:1012C0000F900F900F900F90CE01DF91CF911F9153
:1012D0000F91FF90EF90DF90CF90BF90AF9070CFC5
:1012E00020E030E040E050E08D5B9F4F74C2EF9211
:1012F000FF920F931F93CF93DF938C017B018CE3BD
:1013000093E027D2E801CD5BDF4FCE01C6D2F801D2
:10131000F282E182B70180E090E00E94CA12AB0144
:10132000BC01CE01E0D210E020E030E040E050E02F
:10133000612FCE0150D21F5F1031B1F7DF91CF91F5
:101340001F910F91FF90EF9008959A018D5B9F4F31
:10135000211540E1340728F020E030E040E050E182
:1013600002C040E050E037C2411101C0B9CF20E0D7
:1013700030E040E050E18D5B9F4F2DC2FF920F9314
:101380001F93CF93DF939C014330E0F54150A42F8E
:10139000B0E0FC0184E1489FE00DF11D112486A519
:1013A000811126C046A772A761A735A724A74423A9
:1013B00051F0413079F456E0C5E0D3E014E007E0A5
:1013C00082E0F82E07C05CE0CBE0D9E01AE00DE047
:1013D00098E0F92E84E18A9FF0018B9FF00D112493
:1013E000E20FF31FF3A206A314A3D5A3C7A350A72C
:1013F00044E14A9FC0014B9F900D11244B96820FF0
:10140000931F02C080E090E0DF91CF911F910F9178
:10141000FF900895FC0114821382158212821182BA
:1014200010820895BF92CF92DF92EF92FF920F93B6
:101430001F93CF93DF931F92CDB7DEB78C01B62EEB
:101440007C0183E0E80EF11C6801EBE1CE0ED11CBB
:10145000C701E0DFF6E0EF0EF11CEC14FD04C1F76C
:10146000F80113A616A612A611A617AEEE5BFF4F43
:101470001082F80116AE15AE7801F3E4EF0EF11C00
:1014800060E4C701A5D1F801B0826B2DCE010196B1
:101490009FD18981F70180830F90DF91CF911F91B8
:1014A0000F91FF90EF90DF90CF90BF9008950F9332
:1014B0001F93CF93DF93EC01142F8889413019F4E7
:1014C00083FF05C00DC0423049F483FF09C061307D
:1014D00011F4805F01C08051888B41C0433031F4EA
:1014E000613011F4885FF8CF8850F6CF4430B9F5F9
:1014F000613011F48F5F01C08150888B28892F7370
:10150000288B822F90E0203148F4EEE1F1E0E81BD7
:10151000F90B2081FC01E25FFE4F1FC030EF320F5C
:10152000303138F4FC01E250FF4F2081EEE2F1E06F
:1015300012C02052203148F4EEE3F1E0E81BF90B31
:101540002081FC01E251FF4F08C0FC01E252FF4F35
:101550002081EEE4F1E0E81BF90B008102C02FEFDF
:101560000FEF88898F73888B80E1289FA001112459
:10157000688589899A89E9DE80E1089FA0011124A4
:101580006B8589899A89E1DEE8891430A1F4E0311C
:1015900010F010E001C013E080EF8E0F803108F4EE
:1015A000166080EE8E0F803108F41C60E053E0314D
:1015B00068F419600BC0E695E695E695E83028F4E6
:1015C000F0E0EA58FE4F108101C010E089899A8945
:1015D00010FF04C041E06A85C7DE02C06A8580DE74
:1015E00089899A8911FF04C041E06C85BDDE02C083
:1015F0006C8576DE89899A8912FF04C041E069858D
:10160000B3DE02C069856CDE89899A8913FF04C044
:1016100041E06D85A9DE02C06D8562DE8889DF91BB
:10162000CF911F910F91089580916C0390E02091CC
:101630006D03821B9109089520916D0380916C03C5
:10164000281750F4E22FF0E0E259FC4F808190E03F
:101650002F5F20936D0308958FEF9FEF0895E09122
:101660006D0380916C03E81730F4F0E0E259FC4F11
:10167000808190E008958FEF9FEF08950895CF92B5
:10168000DF92EF92FF920F931F93CF93DF937C0132
:10169000CB018A0120914803222389F0EB016B01E1
:1016A000C40ED51ECC15DD0561F06991D701ED9111
:1016B000FC910190F081E02DC7010995F3CF642FD3
:1016C00022D2C801DF91CF911F910F91FF90EF902F
:1016D000DF90CF900895CF93DF931F92CDB7DEB701
:1016E0006983209148032223D1F0209149032032BD
:1016F00040F021E030E0FC013383228380E090E081
:1017000014C080914A03E82FF0E0E55BFC4F99811B
:1017100090838F5F80934A038093490304C061E004
:10172000CE010196F0D181E090E00F90DF91CF9152
:101730000895FC011382128248EE53E060E070E0ED
:10174000448355836683778382E891E09183808325
:10175000089510926D0310926C0310924A03109238
:1017600049031EC1862F413208F040E26EE673E065
:1017700033D110926D0380936C03089521E0F2CF72
:1017800081E08093480360936B0310924A031092A8
:10179000490308950F93062F21E0409149036BE41C
:1017A00073E080916B035CD110924A03109249035D
:1017B000109248030F91089561E0ECCF8CE393E021
:1017C000B8CFDC01ED91FC910190F081E02D0994FE
:1017D000FC0160830895FF920F931F93CF93DF93D3
:1017E00000D0CDB7DEB7162FF52E032FFC01608198
:1017F0008CE393E02A834983C3DFE0913C03F091BB
:101800003D0384E0189FB00111246A5F7F4F01906F
:10181000F081E02D8CE393E009954981642F7F2DC1
:101820008CE393E0CEDF6F2D70E08CE393E0C9DFB3
:101830002A81622F702F8CE393E0C3DF602F70E06A
:101840008CE393E0BEDF8CE393E00F900F90DF9189
:10185000CF911F910F91FF90AFCF1F93CF93DF9345
:101860001F92CDB7DEB7162FFC0160818CE393E0A9
:10187000498386DF612F8CE393E02DDF4981642F5C
:101880008CE393E028DF8CE393E00F90DF91CF911E
:101890001F9192CF40E060E0E0CFCF93DF93EC0167
:1018A0008CE393E056DFCE01DF91CF91F3CF1F930E
:1018B000CF93DF93EC01162F68818CE393E060DF18
:1018C000612F8CE393E007DF8CE393E075DF41E069
:1018D00068818CE393E052DF8CE393E0ADDEDF912F
:1018E000CF911F910895CF92DF92EF92FF921F93B5
:1018F000CF93DF93EC019A01AB0160E27CEB8EEBBE
:1019000095E4AFD520E030E040E85FE341D56B01DE
:101910007C016EE871E083E692E00E94EC0322E035
:1019200030E0B701A60183E692E054D920E030E030
:1019300040E05FE3C701B6012CD569D6FFD5F62E8E
:1019400064EA71E083E692E00E94EC034AE050E032
:101950006F2D83E692E00E94810460E0CE01A7DF54
:10196000182F482F4F76406160E0CE0176DF4F2D73
:101970006EEFCE0172DF412F60E0CE016EDF65E0D9
:1019800070E080E090E0BED9412F416A60E0CE0176
:10199000DF91CF911F91FF90EF90DF90CF905DCFBF
:1019A0001092FB0381E08093F9031092F80361E049
:1019B00082E173DA61E083E170DAE9EBF0E08081E3
:1019C0008E7F808380818D7F808388E48093B800C0
:1019D00085E48093BC000895413208F03FC09091A7
:1019E000FB039111FCCF91E09093FB032093F9034B
:1019F0002FEF20938E031092D303240F2093D20352
:101A00009093FA039091FA03880F892B8093FA033D
:101A10008091F803813041F41092F8038091FA0329
:101A20008093BB0085EC01C085EE8093BC00809163
:101A3000FB038130E1F38091D303841710F44091CC
:101A4000D30324ED33E0FB01D9018A2F821B8417D5
:101A500018F48D918193F9CF842F089580E0089533
:101A60000F93413208F046C09091FB039111FCCFD7
:101A700092E09093FB030093F9039FEF90938E0302
:101A80001092D3034093D203FB0164ED73E0DB01BA
:101A90009A2F961B941718F491919D93F9CF109259
:101AA000FA039091FA03880F892B8093FA038091AF
:101AB000F803813041F41092F8038091FA03809387
:101AC000BB0085EC01C085EE8093BC00222321F091
:101AD0008091FB038230E1F380918E038F3F61F0B0
:101AE00080918E03803251F080918E03803341F4D7
:101AF00083E007C081E005C080E003C082E001C050
:101B000084E00F910895613298F42091FB03243012
:101B100089F46093B003FC0182EB93E0DC012A2F8F
:101B2000281B261718F421912D93F9CF80E00895F2
:101B300081E0089582E0089585ED8093BC00809156
:101B4000BC0084FDFCCF1092FB03089585EC8093CC
:101B5000BC001092FB0308951F920F920FB60F92D4
:101B600011242F933F934F935F936F937F938F93A2
:101B70009F93AF93BF93EF93FF938091B900887FBA
:101B8000803609F49CC068F5883209F45BC090F493
:101B9000803109F454C038F4882309F4F3C0883044
:101BA00009F44DC0F2C0883109F44CC0803209F408
:101BB0005DC0EBC0803409F468C048F4803309F498
:101BC00055C0883309F0E1C080938E03A7C08035EB
:101BD00009F44FC0883509F45DC0883409F0D5C0D8
:101BE000D3C0883909F4C4C0A8F4883709F467C0A1
:101BF00038F4883609F463C0803709F460C0C5C082
:101C0000883809F4B5C0803909F45FC0803809F01C
:101C1000BCC05BC0803B09F483C038F4803A09F44F
:101C200066C0883A09F47CC0B0C0803C09F4A4C006
:101C3000883C09F4A1C0883B09F487C0A6C0809104
:101C4000FA0310C09091D3038091D203981770F5D6
:101C5000E091D30381E08E0F8093D303F0E0EC5248
:101C6000FC4F80818093BB0085EC83C080938E0302
:101C70008BC0E091D30381E08E0F8093D3038091DA
:101C8000BB00F0E0EC52FC4F80839091D303809135
:101C9000D2036BC0E091D30381E08E0F8093D30316
:101CA0008091BB00F0E0EC52FC4F80838091F903FF
:101CB00081116AC081E08093F80384EA5EC083E00A
:101CC0008093FB0310928F03CFCF80918F038032DC
:101CD00008F04EC0E0918F0381E08E0F80938F0358
:101CE0008091BB00F0E0E057FC4F8083BDCF809136
:101CF0008F03803230F4E0918F03F0E0E057FC4F27
:101D000010821ADF60918F0370E0E091F403F0918C
:101D1000F50380E993E0099510928F0317DF35C032
:101D200084E08093FB031092B1031092B003E09122
:101D3000F603F091F70309958091B003811105C076
:101D400081E08093B0031092B203E091B10381E08F
:101D50008E0F8093B103F0E0EE54FC4F80818093AE
:101D6000BB009091B1038091B003981708F47CCF29
:101D700085E88093BC0009C085EC8093BC0010927C
:101D8000FB0303C010928E03D7DEFF91EF91BF914A
:101D9000AF919F918F917F916F915F914F913F9103
:101DA0002F910F900FBE0F901F9018958F929F92BA
:101DB000AF92BF92CF92DF92EF92FF92CF93DF93D9
:101DC000EC016B857C858D859E85CF80D884E984E8
:101DD000FA846C197D098E099F0909F4AEC06AF076
:101DE000DBD39B01AC01D5D22F89388D498D5A8D1B
:101DF000DAD440D54B015C0117C090958095709561
:101E000061957F4F8F4F9F4FC7D39B01AC01C1D2CC
:101E10002F89388D498D5A8DC6D42CD54B015C0144
:101E2000B7FAB094B7F8B094CF84D888E988FA8824
:101E3000A7019601C501B401B2D41816ACF520E093
:101E400030E0A901C701B60108D3811109C06F892B
:101E5000788D898D9A8D9B01AC019BD20BD515C0D5
:101E6000A70196016F89788D898D9A8DFAD24B01E1
:101E70005C0120E030E0A90192D4A501940118167C
:101E80000CF05058C701B60184D26B017C019B88CD
:101E9000AC88BD88CE89292D3A2D4B2D5C2F7FD45F
:101EA00018160CF44FC044C0A7019601C501B40137
:101EB000D4D287FF4CC020E030E0A901C701B601B1
:101EC000CCD281110FC06F89788D898D9A8D9B013D
:101ED000AC015FD2CFD46B017C01F7FAF094F7F834
:101EE000F09417C0A70196016F89788D898D9A8D1E
:101EF000B8D24B015C0120E030E0A90150D4A5012B
:101F0000940118160CF05058C701B60141D26B016C
:101F10007C018B889C88AD88BE88B7FAB094B7F8EE
:101F2000B094A5019401C701B60197D287FD0FC0F7
:101F30005C2D4D2D3E2D2F2D0EC050E040E030E0A9
:101F400020E009C0592D4A2D3B2D2C2F04C0582DBF
:101F5000492D3A2D2B2D652F742F832F922FDF9132
:101F6000CF91FF90EF90DF90CF90BF90AF909F9078
:101F70008F900895CF93DF93EC01613089F050F09A
:101F80006230E1F0633061F561E08B810E944D07C2
:101F900060E019C061E08B810E944D0760E005C0E0
:101FA00060E08B810E944D0761E08C810E944D07AB
:101FB00061E08D810E944D0760E00DC060E08B8183
:101FC0000E944D0761E08C810E944D0760E08D8189
:101FD0000E944D0761E08E81DF91CF910C944D07F7
:101FE000DF91CF9108951F93CF93DF93EC0111E020
:101FF00020E030E0A9016F85788989899A89CFD35B
:1020000018160CF010E0612F8C810E944D0761E0E2
:102010008B810E944D0781E090E00E94A60660E05F
:102020008B81DF91CF911F910C944D07DC011296AB
:102030002C91213069F028F0223089F02430B1F061
:102040000895DC01ED91FC910280F381E02D09946B
:10205000DC01ED91FC910480F581E02D0DC0DC01E7
:10206000ED91FC910680F781E02D06C0DC01ED9139
:10207000FC910084F185E02D0994CF93DF93EC016E
:1020800020E030E0A9016F85788989899A8987D312
:1020900018161CF4EBA1FCA102C0EDA1FEA1DF917A
:1020A000CF910994CF93DF93EC01613049F030F088
:1020B000623061F06330A1F460E009C060E001C00B
:1020C00061E08B810E944D0761E005C061E08B817A
:1020D0000E944D0760E08C81DF91CF910C944D07F9
:1020E000DF91CF9108958F929F92AF92BF92CF923E
:1020F000DF92EF92FF92CF93DF93EC010E944606AE
:102100006B017C014B8D5C8D6D8D7E8D8F8C98A0CD
:10211000A9A0BAA0480D591D6A1D7B1D4C155D056F
:102120006E057F05C0F58F849888A988BA8820E05D
:1021300030E0A901C501B40132D318164CF44F8127
:10214000588569857A854F5F5F4F6F4F7F4F10C00D
:1021500020E030E0A901C501B4017FD187FF0CC0A8
:102160004F81588569857A85415051096109710906
:102170004F83588769877A87E881F9816F81637017
:102180000190F081E02DCE010995CF8ED8A2E9A271
:10219000FAA281E001C080E0DF91CF91FF90EF9043
:1021A000DF90CF90BF90AF909F908F9008950F9346
:1021B0001F93FC018AEB91E0918380831282178246
:1021C0001086118612861386148615861686178643
:1021D000108A118A128A00E010E020E83FE3038BA6
:1021E000148B258B368B078B108F218F328F138E9C
:1021F000148E158E168E178E10A211A212A21382A3
:1022000014821582168274A363A356A345A31F915B
:102210000F910895CF92DF92EF92FF92CF93DF93C9
:10222000EC014F87588B698B7A8B9A01AB0160E088
:1022300070E08AE794E415D16B017C0120E030E086
:10224000A901ADD218161CF4C701B60103C0C7011D
:10225000B601905873D16B8F7C8F8D8F9E8FDF91DD
:10226000CF91FF90EF90DF90CF900895CF93DF93C1
:10227000EC01E881F9810284F385E02D0995AB0139
:10228000BC01CE01DF91CF91C5CF0F931F93FC010D
:102290000781108521853285040F151F261F371FE2
:1022A00003871487258736871F910F91DFCF0F9300
:1022B0001F93CF93DF93EC010B851C852D853E8505
:1022C0004F81588569857A850417150726073707D2
:1022D00031F009DF882329F0CE01C8DF02C080E099
:1022E00001C081E0DF91CF911F910F910895FC0112
:1022F000438B548B658B768BB9CFFC01478B508F0A
:10230000618F728FB3CF4F925F926F927F92AF9235
:10231000BF92CF92DF92EF92FF920F931F93CF93D2
:10232000DF93CDB7DEB729013A01621B730B840B33
:10233000950B29893A894B895C892A193B094C09F3
:102340005D09298B3A8B4B8B5C8B9B01AC016989B6
:102350007A898B899C89E6D2E418F5080609170961
:10236000A80197011CD32A0D3B1D4C1D5D1DB90111
:10237000CA01DF91CF911F910F91FF90EF90DF90F5
:10238000CF90BF90AF907F906F905F904F900895E7
:102390005058BB27AA270ED0B1C1A2D130F0A7D187
:1023A00020F031F49F3F11F41EF497C10EF4E09534
:1023B000E7FB64C1E92FB3D180F3BA176207730753
:1023C0008407950718F071F49EF5E2C10EF4E095CC
:1023D0000B2EBA2FA02D0B01B90190010C01CA01DF
:1023E000A0011124FF27591B99F0593F50F4503E8A
:1023F00068F11A16F040A22F232F342F4427585F7C
:10240000F3CF469537952795A795F0405395C9F793
:102410007EF41F16BA0B620B730B840BBAF091504B
:10242000A1F0FF0FBB1F661F771F881FC2F70EC0EA
:10243000BA0F621F731F841F48F4879577956795BD
:10244000B795F7959E3F08F0B3CF9395880F08F0A6
:102450009927EE0F979587950895ECD008F481E0C1
:1024600008950CD04BC143D140F03AD130F021F463
:102470005F3F19F003C151118CC12FC150D198F3A6
:102480009923C9F35523B1F3951B550BBB27AA27F5
:1024900062177307840738F09F5F5F4F220F331F67
:1024A000441FAA1FA9F333D00E2E3AF0E0E830D033
:1024B00091505040E695001CCAF729D0FE2F27D036
:1024C000660F771F881FBB1F261737074807AB0704
:1024D000B0E809F0BB0B802DBF01FF2793585F4F79
:1024E0002AF09E3F510568F0C9C053C15F3FECF32D
:1024F000983EDCF3869577956795B795F7959F5F3E
:10250000C9F7880F911D9695879597F90895E1E091
:10251000660F771F881FBB1F621773078407BA07F0
:1025200020F0621B730B840BBA0BEE1F88F7E0954B
:10253000089504D06894B1112CC10895F8D088F0A2
:102540009F5790F0B92F9927B751A0F0D1F0660F9F
:10255000771F881F991F1AF0BA95C9F712C0B130BA
:1025600081F016D1B1E0089513C1672F782F882725
:10257000B85F39F0B93FCCF3869577956795B395F9
:10258000D9F73EF490958095709561957F4F8F4F68
:102590009F4F0895E89409C097FB3EF4909580956D
:1025A000709561957F4F8F4F9F4F9923A9F0F92F19
:1025B00096E9BB279395F695879577956795B79597
:1025C000F111F8CFFAF4BB0F11F460FF1BC06F5F7D
:1025D0007F4F8F4F9F4F16C0882311F096E911C08F
:1025E000772321F09EE8872F762F05C0662371F0B0
:1025F00096E8862F70E060E02AF09A95660F771FC4
:10260000881FDAF7880F9695879597F90895A9D0CE
:1026100080F09F3740F491110EF0BBC060E070E095
:1026200080E89FEB089526F41B16611D711D811D26
:102630002BC045C0990F0008550FAA0BE0E8FEEF2C
:1026400016161706E807F907C0F012161306E40776
:10265000F50798F0621B730B840B950B39F40A266F
:1026600061F0232B242B252B21F408950A2609F44D
:10267000A140A6958FEF811D811D089597F99F6751
:1026800080E870E060E00895882371F4772321F0FA
:102690009850872B762F07C0662311F499270DC019
:1026A0009051862B70E060E02AF09A95660F771FB4
:1026B000881FDAF7880F9695879597F908959F3FB9
:1026C00031F0915020F4879577956795B795880FED
:1026D000911D9695879597F908959FEF80EC089541
:1026E00000240A94161617061806090608950024F1
:1026F0000A9412161306140605060895092E03946B
:10270000000C11F4882352F0BB0F40F4BF2B11F4DE
:1027100060FF04C06F5F7F4F8F4F9F4F089557FD3D
:102720009058440F551F59F05F3F71F04795880F3F
:1027300097FB991F61F09F3F79F0879508951216D6
:1027400013061406551FF2CF4695F1DF08C0161682
:1027500017061806991FF1CF869571056105089433
:102760000895E5DFA0F0BEE7B91788F4BB279F38CE
:1027700060F41616B11D672F782F8827985FF7CF62
:10278000869577956795B11D93959639C8F3089509
:10279000E894BB2766277727CB0197F908954ADF8E
:1027A00008F48FEF08950BD0A9CF9ADF28F09FDFB0
:1027B00018F0952309F062CF90CF1124EACFAFDF54
:1027C000A0F3959FD1F3950F50E0551F629FF00144
:1027D000729FBB27F00DB11D639FAA27F00DB11D9D
:1027E000AA1F649F6627B00DA11D661F829F222726
:1027F000B00DA11D621F739FB00DA11D621F839FAD
:10280000A00D611D221F749F3327A00D611D231F82
:10281000849F600D211D822F762F6A2F11249F57D0
:1028200050408AF0E1F088234AF0EE0FFF1FBB1FF3
:10283000661F771F881F91505040A9F79E3F510592
:1028400070F01CCFA6CF5F3FECF3983EDCF386958B
:1028500077956795B795F795E7959F5FC1F7FE2B3D
:10286000880F911D9695879597F9089511F40EF4A8
:1028700034CF25CF5CDFD0F39923D9F3CEF39F5724
:10288000550B87FF39D00024A0E640EA900180581C
:102890005695979528F4805C660F771F881F20F067
:1028A00026173707480730F4621B730B840B202967
:1028B00031294A2BA69517940794202531254A27BC
:1028C00058F7660F771F881F20F02617370748072D
:1028D00030F4620B730B840B200D311D411DA0954C
:1028E00081F7B901842F9158880F9695879508959F
:1028F000A1DE880B990B089591505040660F771F09
:10290000881FD2F70895A29FB001B39FC001A39F73
:10291000700D811D1124911DB29F700D811D112418
:10292000911D0895DB018F939F9355D0BF91AF9177
:10293000A29F800D911DA39F900DB29F900D112419
:102940000895991B79E004C0991F961708F0961B0B
:10295000881F7A95C9F780950895A1E21A2EAA1BBF
:10296000BB1BFD010DC0AA1FBB1FEE1FFF1FA2173F
:10297000B307E407F50720F0A21BB30BE40BF50B3C
:10298000661F771F881F991F1A9469F760957095C5
:10299000809590959B01AC01BD01CF010895052E56
:1029A00097FB16F400940FD057FD05D0D6DF07FC37
:1029B00002D046F408C050954095309521953F4F80
:1029C0004F4F5F4F089590958095709561957F4F1B
:1029D0008F4F9F4F089597DFA59F900DB49F900D47
:1029E000A49F800D911D11240895EE0FFF1F0590E7
:0A29F000F491E02D0994F894FFCF54
:1029FA000000FC032000010000000700020000198B
:102A0A00324A62788DA2B4C5D4E1ECF4FAFDFF43F0
:102A1A0068616E67696E6720696E70757420737479
:102A2A0061746520746F3A00466C79776865656CE5
:102A3A00204F6E00466C79776865656C204F666634
:102A4A0000466972696E6700000000001402AE0356
:102A5A00B601E501C90109026E616E00696E660080
:102A6A006F7666002E0001030206040C08090000B6
:102A7A0000006B0B3F0B140B1C0B2F0B3E0B45730B
:102A8A0074696D61746564207072652D7363616C1D
:102A9A00653A200046696E616C207072652D736319
:102AAA00616C653A20000000000016103D10F30F1B
:062ABA005210BA0FD60E07
:00000001FF
